{
  "contractName": "FloodFund",
  "abi": [
    {
      "inputs": [],
      "stateMutability": "nonpayable",
      "type": "constructor"
    },
    {
      "inputs": [],
      "name": "fundraiserCtgNorth",
      "outputs": [
        {
          "internalType": "address payable",
          "name": "",
          "type": "address"
        }
      ],
      "stateMutability": "view",
      "type": "function",
      "constant": true
    },
    {
      "inputs": [],
      "name": "fundraiserCtgSouth",
      "outputs": [
        {
          "internalType": "address payable",
          "name": "",
          "type": "address"
        }
      ],
      "stateMutability": "view",
      "type": "function",
      "constant": true
    },
    {
      "inputs": [],
      "name": "fundraiserSylhet",
      "outputs": [
        {
          "internalType": "address payable",
          "name": "",
          "type": "address"
        }
      ],
      "stateMutability": "view",
      "type": "function",
      "constant": true
    },
    {
      "inputs": [],
      "name": "owner",
      "outputs": [
        {
          "internalType": "address",
          "name": "",
          "type": "address"
        }
      ],
      "stateMutability": "view",
      "type": "function",
      "constant": true
    },
    {
      "inputs": [
        {
          "internalType": "address payable",
          "name": "_sylhet",
          "type": "address"
        },
        {
          "internalType": "address payable",
          "name": "_ctgNorth",
          "type": "address"
        },
        {
          "internalType": "address payable",
          "name": "_ctgSouth",
          "type": "address"
        }
      ],
      "name": "setFundraisers",
      "outputs": [],
      "stateMutability": "nonpayable",
      "type": "function"
    },
    {
      "inputs": [
        {
          "internalType": "string",
          "name": "_name",
          "type": "string"
        },
        {
          "internalType": "string",
          "name": "_mobileNumber",
          "type": "string"
        }
      ],
      "name": "registerDonor",
      "outputs": [],
      "stateMutability": "nonpayable",
      "type": "function"
    },
    {
      "inputs": [
        {
          "internalType": "string",
          "name": "_fundraiserZone",
          "type": "string"
        },
        {
          "internalType": "string",
          "name": "_mobileNumber",
          "type": "string"
        }
      ],
      "name": "donate",
      "outputs": [],
      "stateMutability": "payable",
      "type": "function",
      "payable": true
    },
    {
      "inputs": [],
      "name": "getBalance",
      "outputs": [
        {
          "components": [
            {
              "internalType": "uint256",
              "name": "sylhet",
              "type": "uint256"
            },
            {
              "internalType": "uint256",
              "name": "ctgNorth",
              "type": "uint256"
            },
            {
              "internalType": "uint256",
              "name": "ctgSouth",
              "type": "uint256"
            },
            {
              "internalType": "uint256",
              "name": "total",
              "type": "uint256"
            }
          ],
          "internalType": "struct FloodFund.Balance",
          "name": "",
          "type": "tuple"
        }
      ],
      "stateMutability": "view",
      "type": "function",
      "constant": true
    },
    {
      "inputs": [
        {
          "internalType": "address",
          "name": "_donorAddress",
          "type": "address"
        }
      ],
      "name": "getDonorInfoByAddress",
      "outputs": [
        {
          "internalType": "string",
          "name": "",
          "type": "string"
        },
        {
          "internalType": "string",
          "name": "",
          "type": "string"
        }
      ],
      "stateMutability": "view",
      "type": "function",
      "constant": true
    }
  ],
  "bytecode": "0x608060405234801561001057600080fd5b50600380546001600160a01b03191633179055610de3806100326000396000f3fe6080604052600436106100865760003560e01c80637fa33a18116100595780637fa33a18146101455780638da5cb5b14610165578063a577589e14610185578063b60c3fb0146101a5578063c4691929146101c557600080fd5b80630eec66b71461008b57806312065fe0146100c85780631653441c1461011057806376772ae714610125575b600080fd5b34801561009757600080fd5b506002546100ab906001600160a01b031681565b6040516001600160a01b0390911681526020015b60405180910390f35b3480156100d457600080fd5b506100dd6101f3565b6040516100bf91908151815260208083015190820152604080830151908201526060918201519181019190915260800190565b61012361011e366004610b21565b610291565b005b34801561013157600080fd5b50610123610140366004610b9d565b6105ab565b34801561015157600080fd5b506000546100ab906001600160a01b031681565b34801561017157600080fd5b506003546100ab906001600160a01b031681565b34801561019157600080fd5b506101236101a0366004610b21565b610652565b3480156101b157600080fd5b506001546100ab906001600160a01b031681565b3480156101d157600080fd5b506101e56101e0366004610be8565b610804565b6040516100bf929190610c68565b61021e6040518060800160405280600081526020016000815260200160008152602001600081525090565b6002546001546000805490926001600160a01b0390811631926102479290821631911631610c96565b6102519190610c96565b604080516080810182526000546001600160a01b039081163182526001548116316020830152600254163191810191909152606081019190915292915050565b80516000036102e75760405162461bcd60e51b815260206004820181905260248201527f506c656173652070726f7669646520746865206d6f62696c65206e756d62657260448201526064015b60405180910390fd5b806040516020016102f89190610cbc565b60408051601f1981840301815282825280516020918201203360009081526004835292909220919261032e926001019101610d12565b60405160208183030381529060405280519060200120146103a65760405162461bcd60e51b815260206004820152602c60248201527f4d6f62696c65204e756d626572206e6f74206d617463686564206f72206e6f7460448201526b103932b3b4b9ba32b932b21760a11b60648201526084016102de565b604051651cde5b1a195d60d21b602082015260260160405160208183030381529060405280519060200120826040516020016103e29190610cbc565b604051602081830303815290604052805190602001200361043c57600080546040516001600160a01b03909116913480156108fc02929091818181858888f19350505050158015610437573d6000803e3d6000fd5b505050565b6040516f0c6d0d2e8e8c2cededcce5ae6deeae8d60831b602082015260300160405160208183030381529060405280519060200120826040516020016104829190610cbc565b60405160208183030381529060405280519060200120036104d6576001546040516001600160a01b03909116903480156108fc02916000818181858888f19350505050158015610437573d6000803e3d6000fd5b6040516f0c6d0d2e8e8c2cededcce5adcdee4e8d60831b6020820152603001604051602081830303815290604052805190602001208260405160200161051c9190610cbc565b6040516020818303038152906040528051906020012003610570576002546040516001600160a01b03909116903480156108fc02916000818181858888f19350505050158015610437573d6000803e3d6000fd5b60405162461bcd60e51b815260206004820152601060248201526f556e617661696c61626c65207a6f6e6560801b60448201526064016102de565b6003546001600160a01b031633146106135760405162461bcd60e51b815260206004820152602560248201527f4f6e6c7920746865206f776e65722063616e2063616c6c20746869732066756e60448201526431ba34b7b760d91b60648201526084016102de565b600080546001600160a01b039485166001600160a01b031991821617909155600180549385169382169390931790925560028054919093169116179055565b6000546001600160a01b0316331480159061067857506001546001600160a01b03163314155b801561068f57506002546001600160a01b03163314155b6107145760405162461bcd60e51b815260206004820152604a60248201527f596f7572206163636f756e7420697320612066756e647261697365722061636360448201527f6f756e742e20506c65617365207573652061206e6f6e2d66756e647261697365606482015269391030b1b1b7bab73a1760b11b608482015260a4016102de565b815160000361075c5760405162461bcd60e51b8152602060048201526014602482015273283632b0b9b290383937bb34b232903730b6b29760611b60448201526064016102de565b80516000036107ad5760405162461bcd60e51b815260206004820152601d60248201527f506c656173652070726f76696465206d6f62696c65206e756d6265722e00000060448201526064016102de565b6040805180820182528381526020808201849052336000908152600482529290922081518051929391926107e492849201906109e5565b5060208281015180516107fd92600185019201906109e5565b5050505050565b6001600160a01b03811660009081526004602052604090208054606091829161082c90610cd8565b151590508061086157506001600160a01b0383166000908152600460205260409020600101805461085c90610cd8565b151590505b6108a65760405162461bcd60e51b81526020600482015260166024820152751059191c995cdcc81b9bdd081c9959da5cdd195c995960521b60448201526064016102de565b6001600160a01b03831660009081526004602052604090208054600182019082906108d090610cd8565b80601f01602080910402602001604051908101604052809291908181526020018280546108fc90610cd8565b80156109495780601f1061091e57610100808354040283529160200191610949565b820191906000526020600020905b81548152906001019060200180831161092c57829003601f168201915b5050505050915080805461095c90610cd8565b80601f016020809104026020016040519081016040528092919081815260200182805461098890610cd8565b80156109d55780601f106109aa576101008083540402835291602001916109d5565b820191906000526020600020905b8154815290600101906020018083116109b857829003601f168201915b5050505050905091509150915091565b8280546109f190610cd8565b90600052602060002090601f016020900481019282610a135760008555610a59565b82601f10610a2c57805160ff1916838001178555610a59565b82800160010185558215610a59579182015b82811115610a59578251825591602001919060010190610a3e565b50610a65929150610a69565b5090565b5b80821115610a655760008155600101610a6a565b634e487b7160e01b600052604160045260246000fd5b600082601f830112610aa557600080fd5b813567ffffffffffffffff80821115610ac057610ac0610a7e565b604051601f8301601f19908116603f01168101908282118183101715610ae857610ae8610a7e565b81604052838152866020858801011115610b0157600080fd5b836020870160208301376000602085830101528094505050505092915050565b60008060408385031215610b3457600080fd5b823567ffffffffffffffff80821115610b4c57600080fd5b610b5886838701610a94565b93506020850135915080821115610b6e57600080fd5b50610b7b85828601610a94565b9150509250929050565b6001600160a01b0381168114610b9a57600080fd5b50565b600080600060608486031215610bb257600080fd5b8335610bbd81610b85565b92506020840135610bcd81610b85565b91506040840135610bdd81610b85565b809150509250925092565b600060208284031215610bfa57600080fd5b8135610c0581610b85565b9392505050565b60005b83811015610c27578181015183820152602001610c0f565b83811115610c36576000848401525b50505050565b60008151808452610c54816020860160208601610c0c565b601f01601f19169290920160200192915050565b604081526000610c7b6040830185610c3c565b8281036020840152610c8d8185610c3c565b95945050505050565b60008219821115610cb757634e487b7160e01b600052601160045260246000fd5b500190565b60008251610cce818460208701610c0c565b9190910192915050565b600181811c90821680610cec57607f821691505b602082108103610d0c57634e487b7160e01b600052602260045260246000fd5b50919050565b600080835481600182811c915080831680610d2e57607f831692505b60208084108203610d4d57634e487b7160e01b86526022600452602486fd5b818015610d615760018114610d7257610d9f565b60ff19861689528489019650610d9f565b60008a81526020902060005b86811015610d975781548b820152908501908301610d7e565b505084890196505b50949897505050505050505056fea2646970667358221220676871d23f1767a02bf9686375b9850d19148d11cef94a82eec53e7f637a62d164736f6c634300080d0033",
  "immutableReferences": {},
  "source": "// SPDX-License-Identifier: MIT\r\npragma solidity ^0.8.0;\r\n\r\ncontract FloodFund {\r\n    address payable public fundraiserSylhet;\r\n    address payable public fundraiserCtgNorth;\r\n    address payable public fundraiserCtgSouth;\r\n    address public owner;\r\n\r\n    struct Donor {\r\n        string name;\r\n        string mobileNumber;\r\n    }\r\n\r\n    struct Balance{\r\n        uint256 sylhet;\r\n        uint256 ctgNorth;\r\n        uint256 ctgSouth;\r\n        uint256 total;\r\n    }\r\n\r\n    mapping (address => Donor) donorList;\r\n\r\n    constructor() {\r\n        owner = msg.sender;\r\n    }\r\n\r\n    modifier onlyOwner() {\r\n        require(msg.sender == owner, \"Only the owner can call this function\");\r\n        _;\r\n    }\r\n\r\n    function setFundraisers(address payable _sylhet, address payable _ctgNorth, address payable _ctgSouth) external onlyOwner {\r\n        fundraiserSylhet = _sylhet;\r\n        fundraiserCtgNorth = _ctgNorth;\r\n        fundraiserCtgSouth = _ctgSouth;\r\n    }\r\n\r\n    modifier exceptFundreiser() {\r\n        require(\r\n            msg.sender != fundraiserSylhet &&\r\n            msg.sender != fundraiserCtgNorth &&\r\n            msg.sender != fundraiserCtgSouth,\r\n            \"Your account is a fundraiser account. Please use a non-fundraiser account.\"\r\n        );\r\n        _;\r\n    }\r\n\r\n    function registerDonor(string memory _name, string memory _mobileNumber) public exceptFundreiser {\r\n        require(bytes(_name).length != 0, \"Please provide name.\");\r\n        require(bytes(_mobileNumber).length != 0, \"Please provide mobile number.\");\r\n        donorList[msg.sender] = Donor(_name, _mobileNumber);\r\n    }\r\n\r\n    function donate(string memory _fundraiserZone, string memory _mobileNumber) public payable {\r\n        require(bytes(_mobileNumber).length != 0, \"Please provide the mobile number\" );\r\n        require(keccak256(abi.encodePacked(donorList[msg.sender].mobileNumber)) == keccak256(abi.encodePacked(_mobileNumber)), \"Mobile Number not matched or not registered.\");\r\n\r\n        if (keccak256(abi.encodePacked(_fundraiserZone)) == keccak256(abi.encodePacked(\"sylhet\"))) {\r\n            fundraiserSylhet.transfer(msg.value);\r\n        } \r\n        else if (keccak256(abi.encodePacked(_fundraiserZone)) == keccak256(abi.encodePacked(\"chittagong-south\"))) {\r\n            fundraiserCtgNorth.transfer(msg.value);\r\n        } \r\n        else if (keccak256(abi.encodePacked(_fundraiserZone)) == keccak256(abi.encodePacked(\"chittagong-north\"))) {\r\n            fundraiserCtgSouth.transfer(msg.value);\r\n        } \r\n        else{\r\n            revert(\"Unavailable zone\");\r\n        }\r\n    }\r\n\r\n    function getBalance() public view returns (Balance memory) {\r\n        uint256 total = address(fundraiserSylhet).balance + address(fundraiserCtgNorth).balance + address(fundraiserCtgSouth).balance;\r\n        return Balance(address(fundraiserSylhet).balance, address(fundraiserCtgNorth).balance, address(fundraiserCtgSouth).balance, total);\r\n    }\r\n\r\n    function getDonorInfoByAddress(address _donorAddress) public view returns (string memory, string memory) {\r\n        require(bytes(donorList[_donorAddress].name).length != 0 || bytes(donorList[_donorAddress].mobileNumber).length != 0, \"Address not registered\" );\r\n        return (donorList[_donorAddress].name, donorList[_donorAddress].mobileNumber);\r\n    }\r\n}",
  "sourcePath": "/home/abir/Documents/repos/flood-fundraiser/contracts/FloodFund.sol",
  "compiler": {
    "name": "solc",
    "version": "0.8.13+commit.abaa5c0e.Emscripten.clang"
  },
  "schemaVersion": "3.4.16",
  "updatedAt": "2024-09-14T10:46:21.277Z",
  "networkType": "ethereum",
  "devdoc": {
    "kind": "dev",
    "methods": {},
    "version": 1
  },
  "userdoc": {
    "kind": "user",
    "methods": {},
    "version": 1
  }
}