{
  "contractName": "FloodFund",
  "abi": [
    {
      "inputs": [],
      "stateMutability": "nonpayable",
      "type": "constructor"
    },
    {
      "inputs": [],
      "name": "fundraiserCtgNorth",
      "outputs": [
        {
          "internalType": "address payable",
          "name": "",
          "type": "address"
        }
      ],
      "stateMutability": "view",
      "type": "function",
      "constant": true
    },
    {
      "inputs": [],
      "name": "fundraiserCtgSouth",
      "outputs": [
        {
          "internalType": "address payable",
          "name": "",
          "type": "address"
        }
      ],
      "stateMutability": "view",
      "type": "function",
      "constant": true
    },
    {
      "inputs": [],
      "name": "fundraiserSylhet",
      "outputs": [
        {
          "internalType": "address payable",
          "name": "",
          "type": "address"
        }
      ],
      "stateMutability": "view",
      "type": "function",
      "constant": true
    },
    {
      "inputs": [],
      "name": "owner",
      "outputs": [
        {
          "internalType": "address",
          "name": "",
          "type": "address"
        }
      ],
      "stateMutability": "view",
      "type": "function",
      "constant": true
    },
    {
      "inputs": [
        {
          "internalType": "address payable",
          "name": "_sylhet",
          "type": "address"
        },
        {
          "internalType": "address payable",
          "name": "_ctgNorth",
          "type": "address"
        },
        {
          "internalType": "address payable",
          "name": "_ctgSouth",
          "type": "address"
        }
      ],
      "name": "setFundraisers",
      "outputs": [],
      "stateMutability": "nonpayable",
      "type": "function"
    },
    {
      "inputs": [
        {
          "internalType": "string",
          "name": "_name",
          "type": "string"
        },
        {
          "internalType": "string",
          "name": "_mobileNumber",
          "type": "string"
        }
      ],
      "name": "registerDonor",
      "outputs": [],
      "stateMutability": "nonpayable",
      "type": "function"
    },
    {
      "inputs": [
        {
          "internalType": "string",
          "name": "_fundraiserZone",
          "type": "string"
        },
        {
          "internalType": "string",
          "name": "_mobileNumber",
          "type": "string"
        }
      ],
      "name": "donate",
      "outputs": [],
      "stateMutability": "payable",
      "type": "function",
      "payable": true
    },
    {
      "inputs": [],
      "name": "getBalance",
      "outputs": [
        {
          "components": [
            {
              "internalType": "uint256",
              "name": "sylhet",
              "type": "uint256"
            },
            {
              "internalType": "uint256",
              "name": "ctgNorth",
              "type": "uint256"
            },
            {
              "internalType": "uint256",
              "name": "ctgSouth",
              "type": "uint256"
            },
            {
              "internalType": "uint256",
              "name": "total",
              "type": "uint256"
            }
          ],
          "internalType": "struct FloodFund.Balance",
          "name": "",
          "type": "tuple"
        }
      ],
      "stateMutability": "view",
      "type": "function",
      "constant": true
    },
    {
      "inputs": [
        {
          "internalType": "address",
          "name": "_donorAddress",
          "type": "address"
        }
      ],
      "name": "getDonorInfoByAddress",
      "outputs": [
        {
          "internalType": "string",
          "name": "",
          "type": "string"
        },
        {
          "internalType": "string",
          "name": "",
          "type": "string"
        }
      ],
      "stateMutability": "view",
      "type": "function",
      "constant": true
    }
  ],
  "bytecode": "0x608060405234801561001057600080fd5b5033600360006101000a81548173ffffffffffffffffffffffffffffffffffffffff021916908373ffffffffffffffffffffffffffffffffffffffff160217905550611c34806100616000396000f3fe6080604052600436106100865760003560e01c80637fa33a18116100595780637fa33a18146101265780638da5cb5b14610151578063a577589e1461017c578063b60c3fb0146101a5578063c4691929146101d057610086565b80630eec66b71461008b57806312065fe0146100b65780631653441c146100e157806376772ae7146100fd575b600080fd5b34801561009757600080fd5b506100a061020e565b6040516100ad9190610e75565b60405180910390f35b3480156100c257600080fd5b506100cb610234565b6040516100d89190610efe565b60405180910390f35b6100fb60048036038101906100f69190611073565b6103d0565b005b34801561010957600080fd5b50610124600480360381019061011f9190611117565b61075f565b005b34801561013257600080fd5b5061013b6108b6565b6040516101489190610e75565b60405180910390f35b34801561015d57600080fd5b506101666108da565b604051610173919061118b565b60405180910390f35b34801561018857600080fd5b506101a3600480360381019061019e9190611073565b610900565b005b3480156101b157600080fd5b506101ba610b52565b6040516101c79190610e75565b60405180910390f35b3480156101dc57600080fd5b506101f760048036038101906101f291906111d2565b610b78565b60405161020592919061127e565b60405180910390f35b600260009054906101000a900473ffffffffffffffffffffffffffffffffffffffff1681565b61023c610e0c565b6000600260009054906101000a900473ffffffffffffffffffffffffffffffffffffffff1673ffffffffffffffffffffffffffffffffffffffff1631600160009054906101000a900473ffffffffffffffffffffffffffffffffffffffff1673ffffffffffffffffffffffffffffffffffffffff163160008054906101000a900473ffffffffffffffffffffffffffffffffffffffff1673ffffffffffffffffffffffffffffffffffffffff16316102f491906112e4565b6102fe91906112e4565b9050604051806080016040528060008054906101000a900473ffffffffffffffffffffffffffffffffffffffff1673ffffffffffffffffffffffffffffffffffffffff16318152602001600160009054906101000a900473ffffffffffffffffffffffffffffffffffffffff1673ffffffffffffffffffffffffffffffffffffffff16318152602001600260009054906101000a900473ffffffffffffffffffffffffffffffffffffffff1673ffffffffffffffffffffffffffffffffffffffff163181526020018281525091505090565b6000815103610414576040517f08c379a000000000000000000000000000000000000000000000000000000000815260040161040b90611364565b60405180910390fd5b8060405160200161042591906113c0565b60405160208183030381529060405280519060200120600460003373ffffffffffffffffffffffffffffffffffffffff1673ffffffffffffffffffffffffffffffffffffffff16815260200190815260200160002060010160405160200161048d91906114cf565b60405160208183030381529060405280519060200120146104e3576040517f08c379a00000000000000000000000000000000000000000000000000000000081526004016104da90611558565b60405180910390fd5b6040516020016104f2906115c4565b604051602081830303815290604052805190602001208260405160200161051991906113c0565b60405160208183030381529060405280519060200120036105a05760008054906101000a900473ffffffffffffffffffffffffffffffffffffffff1673ffffffffffffffffffffffffffffffffffffffff166108fc349081150290604051600060405180830381858888f1935050505015801561059a573d6000803e3d6000fd5b5061075b565b6040516020016105af90611625565b60405160208183030381529060405280519060200120826040516020016105d691906113c0565b604051602081830303815290604052805190602001200361065f57600160009054906101000a900473ffffffffffffffffffffffffffffffffffffffff1673ffffffffffffffffffffffffffffffffffffffff166108fc349081150290604051600060405180830381858888f19350505050158015610659573d6000803e3d6000fd5b5061075a565b60405160200161066e90611686565b604051602081830303815290604052805190602001208260405160200161069591906113c0565b604051602081830303815290604052805190602001200361071e57600260009054906101000a900473ffffffffffffffffffffffffffffffffffffffff1673ffffffffffffffffffffffffffffffffffffffff166108fc349081150290604051600060405180830381858888f19350505050158015610718573d6000803e3d6000fd5b50610759565b6040517f08c379a0000000000000000000000000000000000000000000000000000000008152600401610750906116e7565b60405180910390fd5b5b5b5050565b600360009054906101000a900473ffffffffffffffffffffffffffffffffffffffff1673ffffffffffffffffffffffffffffffffffffffff163373ffffffffffffffffffffffffffffffffffffffff16146107ef576040517f08c379a00000000000000000000000000000000000000000000000000000000081526004016107e690611779565b60405180910390fd5b826000806101000a81548173ffffffffffffffffffffffffffffffffffffffff021916908373ffffffffffffffffffffffffffffffffffffffff16021790555081600160006101000a81548173ffffffffffffffffffffffffffffffffffffffff021916908373ffffffffffffffffffffffffffffffffffffffff16021790555080600260006101000a81548173ffffffffffffffffffffffffffffffffffffffff021916908373ffffffffffffffffffffffffffffffffffffffff160217905550505050565b60008054906101000a900473ffffffffffffffffffffffffffffffffffffffff1681565b600360009054906101000a900473ffffffffffffffffffffffffffffffffffffffff1681565b60008054906101000a900473ffffffffffffffffffffffffffffffffffffffff1673ffffffffffffffffffffffffffffffffffffffff163373ffffffffffffffffffffffffffffffffffffffff16141580156109aa5750600160009054906101000a900473ffffffffffffffffffffffffffffffffffffffff1673ffffffffffffffffffffffffffffffffffffffff163373ffffffffffffffffffffffffffffffffffffffff1614155b8015610a045750600260009054906101000a900473ffffffffffffffffffffffffffffffffffffffff1673ffffffffffffffffffffffffffffffffffffffff163373ffffffffffffffffffffffffffffffffffffffff1614155b610a43576040517f08c379a0000000000000000000000000000000000000000000000000000000008152600401610a3a90611831565b60405180910390fd5b6000825103610a87576040517f08c379a0000000000000000000000000000000000000000000000000000000008152600401610a7e9061189d565b60405180910390fd5b6000815103610acb576040517f08c379a0000000000000000000000000000000000000000000000000000000008152600401610ac290611909565b60405180910390fd5b604051806040016040528083815260200182815250600460003373ffffffffffffffffffffffffffffffffffffffff1673ffffffffffffffffffffffffffffffffffffffff1681526020019081526020016000206000820151816000019081610b349190611ac0565b506020820151816001019081610b4a9190611ac0565b509050505050565b600160009054906101000a900473ffffffffffffffffffffffffffffffffffffffff1681565b6060806000600460008573ffffffffffffffffffffffffffffffffffffffff1673ffffffffffffffffffffffffffffffffffffffff1681526020019081526020016000206000018054610bca90611406565b9050141580610c2857506000600460008573ffffffffffffffffffffffffffffffffffffffff1673ffffffffffffffffffffffffffffffffffffffff1681526020019081526020016000206001018054610c2390611406565b905014155b610c67576040517f08c379a0000000000000000000000000000000000000000000000000000000008152600401610c5e90611bde565b60405180910390fd5b600460008473ffffffffffffffffffffffffffffffffffffffff1673ffffffffffffffffffffffffffffffffffffffff168152602001908152602001600020600001600460008573ffffffffffffffffffffffffffffffffffffffff1673ffffffffffffffffffffffffffffffffffffffff168152602001908152602001600020600101818054610cf790611406565b80601f0160208091040260200160405190810160405280929190818152602001828054610d2390611406565b8015610d705780601f10610d4557610100808354040283529160200191610d70565b820191906000526020600020905b815481529060010190602001808311610d5357829003601f168201915b50505050509150808054610d8390611406565b80601f0160208091040260200160405190810160405280929190818152602001828054610daf90611406565b8015610dfc5780601f10610dd157610100808354040283529160200191610dfc565b820191906000526020600020905b815481529060010190602001808311610ddf57829003601f168201915b5050505050905091509150915091565b6040518060800160405280600081526020016000815260200160008152602001600081525090565b600073ffffffffffffffffffffffffffffffffffffffff82169050919050565b6000610e5f82610e34565b9050919050565b610e6f81610e54565b82525050565b6000602082019050610e8a6000830184610e66565b92915050565b6000819050919050565b610ea381610e90565b82525050565b608082016000820151610ebf6000850182610e9a565b506020820151610ed26020850182610e9a565b506040820151610ee56040850182610e9a565b506060820151610ef86060850182610e9a565b50505050565b6000608082019050610f136000830184610ea9565b92915050565b6000604051905090565b600080fd5b600080fd5b600080fd5b600080fd5b6000601f19601f8301169050919050565b7f4e487b7100000000000000000000000000000000000000000000000000000000600052604160045260246000fd5b610f8082610f37565b810181811067ffffffffffffffff82111715610f9f57610f9e610f48565b5b80604052505050565b6000610fb2610f19565b9050610fbe8282610f77565b919050565b600067ffffffffffffffff821115610fde57610fdd610f48565b5b610fe782610f37565b9050602081019050919050565b82818337600083830152505050565b600061101661101184610fc3565b610fa8565b90508281526020810184848401111561103257611031610f32565b5b61103d848285610ff4565b509392505050565b600082601f83011261105a57611059610f2d565b5b813561106a848260208601611003565b91505092915050565b6000806040838503121561108a57611089610f23565b5b600083013567ffffffffffffffff8111156110a8576110a7610f28565b5b6110b485828601611045565b925050602083013567ffffffffffffffff8111156110d5576110d4610f28565b5b6110e185828601611045565b9150509250929050565b6110f481610e54565b81146110ff57600080fd5b50565b600081359050611111816110eb565b92915050565b6000806000606084860312156111305761112f610f23565b5b600061113e86828701611102565b935050602061114f86828701611102565b925050604061116086828701611102565b9150509250925092565b600061117582610e34565b9050919050565b6111858161116a565b82525050565b60006020820190506111a0600083018461117c565b92915050565b6111af8161116a565b81146111ba57600080fd5b50565b6000813590506111cc816111a6565b92915050565b6000602082840312156111e8576111e7610f23565b5b60006111f6848285016111bd565b91505092915050565b600081519050919050565b600082825260208201905092915050565b60005b8381101561123957808201518184015260208101905061121e565b60008484015250505050565b6000611250826111ff565b61125a818561120a565b935061126a81856020860161121b565b61127381610f37565b840191505092915050565b600060408201905081810360008301526112988185611245565b905081810360208301526112ac8184611245565b90509392505050565b7f4e487b7100000000000000000000000000000000000000000000000000000000600052601160045260246000fd5b60006112ef82610e90565b91506112fa83610e90565b9250828201905080821115611312576113116112b5565b5b92915050565b7f506c656173652070726f7669646520746865206d6f62696c65206e756d626572600082015250565b600061134e60208361120a565b915061135982611318565b602082019050919050565b6000602082019050818103600083015261137d81611341565b9050919050565b600081905092915050565b600061139a826111ff565b6113a48185611384565b93506113b481856020860161121b565b80840191505092915050565b60006113cc828461138f565b915081905092915050565b7f4e487b7100000000000000000000000000000000000000000000000000000000600052602260045260246000fd5b6000600282049050600182168061141e57607f821691505b602082108103611431576114306113d7565b5b50919050565b60008190508160005260206000209050919050565b6000815461145981611406565b6114638186611384565b9450600182166000811461147e5760018114611493576114c6565b60ff19831686528115158202860193506114c6565b61149c85611437565b60005b838110156114be5781548189015260018201915060208101905061149f565b838801955050505b50505092915050565b60006114db828461144c565b915081905092915050565b7f4d6f62696c65204e756d626572206e6f74206d617463686564206f72206e6f7460008201527f20726567697374657265642e0000000000000000000000000000000000000000602082015250565b6000611542602c8361120a565b915061154d826114e6565b604082019050919050565b6000602082019050818103600083015261157181611535565b9050919050565b7f73796c6865740000000000000000000000000000000000000000000000000000600082015250565b60006115ae600683611384565b91506115b982611578565b600682019050919050565b60006115cf826115a1565b9150819050919050565b7f636869747461676f6e672d736f75746800000000000000000000000000000000600082015250565b600061160f601083611384565b915061161a826115d9565b601082019050919050565b600061163082611602565b9150819050919050565b7f636869747461676f6e672d6e6f72746800000000000000000000000000000000600082015250565b6000611670601083611384565b915061167b8261163a565b601082019050919050565b600061169182611663565b9150819050919050565b7f556e617661696c61626c65207a6f6e6500000000000000000000000000000000600082015250565b60006116d160108361120a565b91506116dc8261169b565b602082019050919050565b60006020820190508181036000830152611700816116c4565b9050919050565b7f4f6e6c7920746865206f776e65722063616e2063616c6c20746869732066756e60008201527f6374696f6e000000000000000000000000000000000000000000000000000000602082015250565b600061176360258361120a565b915061176e82611707565b604082019050919050565b6000602082019050818103600083015261179281611756565b9050919050565b7f596f7572206163636f756e7420697320612066756e647261697365722061636360008201527f6f756e742e20506c65617365207573652061206e6f6e2d66756e64726169736560208201527f72206163636f756e742e00000000000000000000000000000000000000000000604082015250565b600061181b604a8361120a565b915061182682611799565b606082019050919050565b6000602082019050818103600083015261184a8161180e565b9050919050565b7f506c656173652070726f76696465206e616d652e000000000000000000000000600082015250565b600061188760148361120a565b915061189282611851565b602082019050919050565b600060208201905081810360008301526118b68161187a565b9050919050565b7f506c656173652070726f76696465206d6f62696c65206e756d6265722e000000600082015250565b60006118f3601d8361120a565b91506118fe826118bd565b602082019050919050565b60006020820190508181036000830152611922816118e6565b9050919050565b60006020601f8301049050919050565b600082821b905092915050565b6000600883026119767fffffffffffffffffffffffffffffffffffffffffffffffffffffffffffffffff82611939565b6119808683611939565b95508019841693508086168417925050509392505050565b6000819050919050565b60006119bd6119b86119b384610e90565b611998565b610e90565b9050919050565b6000819050919050565b6119d7836119a2565b6119eb6119e3826119c4565b848454611946565b825550505050565b600090565b611a006119f3565b611a0b8184846119ce565b505050565b5b81811015611a2f57611a246000826119f8565b600181019050611a11565b5050565b601f821115611a7457611a4581611437565b611a4e84611929565b81016020851015611a5d578190505b611a71611a6985611929565b830182611a10565b50505b505050565b600082821c905092915050565b6000611a9760001984600802611a79565b1980831691505092915050565b6000611ab08383611a86565b9150826002028217905092915050565b611ac9826111ff565b67ffffffffffffffff811115611ae257611ae1610f48565b5b611aec8254611406565b611af7828285611a33565b600060209050601f831160018114611b2a5760008415611b18578287015190505b611b228582611aa4565b865550611b8a565b601f198416611b3886611437565b60005b82811015611b6057848901518255600182019150602085019450602081019050611b3b565b86831015611b7d5784890151611b79601f891682611a86565b8355505b6001600288020188555050505b505050505050565b7f41646472657373206e6f74207265676973746572656400000000000000000000600082015250565b6000611bc860168361120a565b9150611bd382611b92565b602082019050919050565b60006020820190508181036000830152611bf781611bbb565b905091905056fea264697066735822122019ddf05cefa61800c7f96c0570dbc1ca8358aad9b626f8d7ece904b80519d48664736f6c63430008100033",
  "immutableReferences": {},
  "source": "// SPDX-License-Identifier: MIT\r\npragma solidity >=0.8.0 <0.9.0;\r\n\r\ncontract FloodFund {\r\n    address payable public fundraiserSylhet;\r\n    address payable public fundraiserCtgNorth;\r\n    address payable public fundraiserCtgSouth;\r\n    address public owner;\r\n\r\n    struct Donor {\r\n        string name;\r\n        string mobileNumber;\r\n    }\r\n\r\n    struct Balance{\r\n        uint256 sylhet;\r\n        uint256 ctgNorth;\r\n        uint256 ctgSouth;\r\n        uint256 total;\r\n    }\r\n\r\n    mapping (address => Donor) donorList;\r\n\r\n    constructor() {\r\n        owner = msg.sender;\r\n    }\r\n\r\n    modifier onlyOwner() {\r\n        require(msg.sender == owner, \"Only the owner can call this function\");\r\n        _;\r\n    }\r\n\r\n    function setFundraisers(address payable _sylhet, address payable _ctgNorth, address payable _ctgSouth) external onlyOwner {\r\n        fundraiserSylhet = _sylhet;\r\n        fundraiserCtgNorth = _ctgNorth;\r\n        fundraiserCtgSouth = _ctgSouth;\r\n    }\r\n\r\n    modifier exceptFundreiser() {\r\n        require(\r\n            msg.sender != fundraiserSylhet &&\r\n            msg.sender != fundraiserCtgNorth &&\r\n            msg.sender != fundraiserCtgSouth,\r\n            \"Your account is a fundraiser account. Please use a non-fundraiser account.\"\r\n        );\r\n        _;\r\n    }\r\n\r\n    function registerDonor(string memory _name, string memory _mobileNumber) public exceptFundreiser {\r\n        require(bytes(_name).length != 0, \"Please provide name.\");\r\n        require(bytes(_mobileNumber).length != 0, \"Please provide mobile number.\");\r\n        donorList[msg.sender] = Donor(_name, _mobileNumber);\r\n    }\r\n\r\n    function donate(string memory _fundraiserZone, string memory _mobileNumber) public payable {\r\n        require(bytes(_mobileNumber).length != 0, \"Please provide the mobile number\" );\r\n        require(keccak256(abi.encodePacked(donorList[msg.sender].mobileNumber)) == keccak256(abi.encodePacked(_mobileNumber)), \"Mobile Number not matched or not registered.\");\r\n\r\n        if (keccak256(abi.encodePacked(_fundraiserZone)) == keccak256(abi.encodePacked(\"sylhet\"))) {\r\n            fundraiserSylhet.transfer(msg.value);\r\n        } \r\n        else if (keccak256(abi.encodePacked(_fundraiserZone)) == keccak256(abi.encodePacked(\"chittagong-south\"))) {\r\n            fundraiserCtgNorth.transfer(msg.value);\r\n        } \r\n        else if (keccak256(abi.encodePacked(_fundraiserZone)) == keccak256(abi.encodePacked(\"chittagong-north\"))) {\r\n            fundraiserCtgSouth.transfer(msg.value);\r\n        } \r\n        else{\r\n            revert(\"Unavailable zone\");\r\n        }\r\n    }\r\n\r\n    function getBalance() public view returns (Balance memory) {\r\n        uint256 total = address(fundraiserSylhet).balance + address(fundraiserCtgNorth).balance + address(fundraiserCtgSouth).balance;\r\n        return Balance(address(fundraiserSylhet).balance, address(fundraiserCtgNorth).balance, address(fundraiserCtgSouth).balance, total);\r\n    }\r\n\r\n    function getDonorInfoByAddress(address _donorAddress) public view returns (string memory, string memory) {\r\n        require(bytes(donorList[_donorAddress].name).length != 0 || bytes(donorList[_donorAddress].mobileNumber).length != 0, \"Address not registered\" );\r\n        return (donorList[_donorAddress].name, donorList[_donorAddress].mobileNumber);\r\n    }\r\n}",
  "sourcePath": "/home/hp/446/fundraiser/contracts/FloodFund.sol",
  "compiler": {
    "name": "solc",
    "version": "0.8.16+commit.07a7930e.Emscripten.clang"
  },
  "schemaVersion": "3.4.16",
  "updatedAt": "2024-09-15T07:49:56.610Z",
  "networkType": "ethereum",
  "devdoc": {
    "kind": "dev",
    "methods": {},
    "version": 1
  },
  "userdoc": {
    "kind": "user",
    "methods": {},
    "version": 1
  }
}